:020000040000FA
:100000000000032065050000993800007905000014
:100010007B0500007D0500007F050000000000005A
:10002000000000000000000000000000810500004A
:100030008305000000000000850500008705000022
:10004000890500008D050000910500009505000060
:10005000990500009D050000A1050000A505000010
:10006000A9050000AD050000B1050000B5050000C0
:10007000B9050000BD050000C1050000C505000070
:10008000C90500004D0600004D0600004D060000A9
:100090004D0600004D0600004D0600004D06000014
:1000A000CD050000D1050000D5050000D9050000F0
:1000B000DD050000E1050000E5050000E9050000A0
:1000C000ED050000F1050000F5050000F905000050
:1000D000FD05000001060000050600004D060000B9
:1000E0004D0600004D0600004D0600004D060000C4
:1000F0004D0600004D0600004D0600004D060000B4
:100100004D0600004D0600004D0600004D060000A3
:100110004D0600004D0600004D0600004D06000093
:100120004D0600004D0600004D0600004D06000083
:100130004D0600004D0600004D0600004D06000073
:100140004D060000090600000D0600001106000023
:1001500015060000190600004D0600004D060000BF
:100160004D0600004D0600001D060000210600009F
:1001700025060000290600002D06000031060000BB
:1001800035060000390600003D0600006D3700000E
:1001900059370000453700004D0600004D060000AD
:1001A0004D0600004D0600004D0600004D06000003
:1001B0004D0600004D0600004D0600004D060000F3
:1001C0004D0600004D0600004D0600004D060000E3
:1001D0004D0600004D0600004D0600004D060000D3
:1003F0004D0600004D0600004D060000FFFFFFFF08
:10040000FFFFFFFFFFFFFFFFFFFFFFFFFEFFFFFFFD
:1004100000F002F800F098F80AA090E8000C82447E
:100420008344AAF10107DA4501D100F08DF8AFF25B
:10043000090EBAE80F0013F0010F18BFFB1A43F0C2
:10044000010318474473000064730000103A24BF8E
:1004500078C878C1FAD8520724BF30C830C144BF29
:1004600004680C607047000000230024002500266B
:10047000103A28BF78C1FBD8520728BF30C148BF07
:100480000B6070476E2900F0B585702900F0118768
:10049000662906F0C981652906F0C681672906F03C
:1004A000C381612906F0C28103681B0A28BF41F09D
:1004B0008001692900F06285642900F05F85752953
:1004C00000F05C856F2900F09E86782900F0DD86BB
:1004D000E92900F03986E42900F03686F52900F094
:1004E0003386EF2900F09B86F82900F0DC8603684C
:1004F000DB0928BF41F08001632901F0BD86732923
:1005000001F0C286E32901F0CD86F32901F0D286FD
:10051000002070471FB506F082F99DE8030000F047
:1005200095FC01F07DFF04000020002106F0B0F8EA
:10053000401C60600020002106F094F8E06001F0AB
:100540008FF900F043FC1FBD04F050FB114603B4CB
:1005500004F060FB03BCFFF7DDFF02F053FC04F086
:100560001BFD000072B63A483A4901603A4880479C
:1005700062B63A480047FEE7FEE7FEE7FEE7FEE721
:10058000FEE7FEE7FEE7FEE735480047354800474F
:10059000354800473548004735480047354800474B
:1005A000354800473548004735480047354800473B
:1005B000354800473548004735480047354800472B
:1005C000354800473548004735480047354800471B
:1005D000354800473548004735480047354800470B
:1005E00035480047354800473548004735480047FB
:1005F00035480047354800473548004735480047EB
:1006000035480047354800473548004735480047DA
:1006100035480047354800473548004735480047CA
:1006200035480047344800473348004732480047C0
:1006300031480047304800473048004730480047BD
:10064000304800473048004730480047FEE7000088
:1006500008ED00E000000000693A0000110400000D
:10066000C53500001936000025360000313600007F
:100670003D36000049360000553600006136000066
:100680006D36000079360000D1350000DD35000000
:10069000E9350000F5350000013600000D36000098
:1006A0004D06000081370000B137000079390000A5
:1006B000C939000055380000113800004D0600000F
:1006C000913A00004D060000A93A00004D060000D6
:1006D000C13A00004D060000D93A00004D06000066
:1006E000193A0000F13A00004D060000093B0000F5
:1006F0004D060000E1370000792E00003D39000072
:100700004D0600004D0600004D0600004D0600009D
:1007100000000000000000000000000000000000D9
:100720000000000000487047C005002070B5064674
:1007300000F070FB056806F10B0020F00704B442DE
:100740009CBF002070BD2B466A68BAB11068A042F9
:1007500010D304F1080188423CBF5068586007D3A9
:100760005168101941601168091B016058601460DC
:10077000101D70BD13465268002AE7D12146284655
:1007800000F050FB0028DED170BD70B50446051F97
:1007900000F040FB0068002C14BF446870BD002CC2
:1007A00018BFAC423CBF20466468F8D301680A1801
:1007B000AA4218BF456003D12A680546114401606A
:1007C00028684119A1421CBF6C6070BD61686960F6
:1007D00021680844286070BD53EA020C00F069806B
:1007E0002DE9F04B4FF00006002B1FBFB3FA83F545
:1007F00003FA05F424FA05F65E4012BF1643B2FA76
:1008000082F502FA05F4C5F120051EBF22FA05FCA7
:1008100044EA0C04203556EA044C4FEA144418BF4D
:10082000641C4FF000084FF00009904271EB030C7C
:1008300039D3002919BFB1FA81F701FA07F6B0FAE6
:1008400080F700FA07F6C7F120071EBF20FA07FC61
:1008500046EA0C062037B6FBF4FCA7EB0507103F71
:1008600007F01F0BCBF120060CFA0BFB2CFA06F657
:1008700044BFB3460026202FA4BF5E464FF0000BB6
:100880005BEA060C08BF4FF0010B19EB0B09ABFB41
:10089000027C48EB0608C01B06FB02CC0BFB03CC1A
:1008A00071EB0C01C1E70B46024641464846BDE8E4
:1008B000F08B13B54FF000004FF00001AFF3008054
:1008C000BDE81C407047B2F120030AD5C2F12003F5
:1008D00001FA02F120FA03F300FA02F041EA0301FF
:1008E000704700FA03F14FF000007047B2F12003A7
:1008F0000AD5C2F1200320FA02F001FA03F321FA2B
:1009000002F140EA0300704721FA03F04FF00001C2
:10091000704700007CB51D4616460C00009001D0C3
:100920002044401E074B7B442A46694601903046CE
:1009300000F079FB05461CB10020694600F086FBFB
:1009400028467CBD2D0700000B460146184600F0E6
:100950008BBB000070B50446C068810713D08006C9
:1009600001D5A56A04E0A169606808442169451AB7
:10097000204600F031FF002206462946204600F0BE
:1009800057FE304670BD002070BD70B510B1BDE897
:100990007040DFE70025074C6E1E07E02046FFF79A
:1009A000D9FF00B13546206D20F00104002CF5D1AF
:1009B000284670BDC405002070B50D46044604E00D
:1009C000294604F0F9FA401C04D014F8010B002861
:1009D000F6D170BD4FF0FF3070BD00002DE9F04141
:1009E0000C4607461646104600F078F82078611C41
:1009F00061280AD0722802D077283CD102E0012574
:100A0000002405E00225042402E0082448F202053F
:100A100011F8010B2B2806D0622809D011F8010C1F
:100A200074280AD00BE045F0030544F00204EFE718
:100A300045F0040544F00104EAE744F010043846A8
:100A4000214604F049F9411C15D000213161716043
:100A50004FF40071F560F1617061200704D53046F4
:100A60000222002100F0E4FD306D40F0010030650D
:100A70003046BDE8F0810020FBE72DE9F0410D464E
:100A80000646104C206DC10704D0410804D020F068
:100A90000104F7E722460EE05420FFF747FE070067
:100AA0000ED0206D47F001010843542120653846DF
:100AB00000F024F93A4629463046BDE8F0418DE77A
:100AC0000020D6E7C405002011B14FF4807201E088
:100AD0004FF480624FF4007300F026BE2DE9F0471A
:100AE00004464FF000094FF0FF37C568D4E904868B
:100AF000A80707D0204600F06FFE304604F09CF8AF
:100B0000002802DA3846BDE8F087280502D54046BD
:100B1000FFF73BFE4C21204600F0F0F8206D20F05E
:100B2000010020654846EEE70EB5054614460E4620
:100B300013A001F037FC284601F034FC16A001F0A8
:100B400031FC304601F02EFC15A001F02BFC0021F9
:100B50008DF80B100A210DF10A008DF80A1008E03B
:100B600094FBF1F201FB124294FBF1F4303200F8F5
:100B7000012D002CF4DC01F015FC00F00DFF00004D
:100B80002A2A2A20617373657274696F6E20666108
:100B9000696C65643A2000002C2066696C65200051
:100BA0002C206C696E65200030B503461D783DB180
:100BB0000A4612F8014B1CB1AC42FAD15B1CF5E7B6
:100BC000181A30BD10B5431C02E010F8011B71B1BA
:100BD0008107FAD14FF0013202C88C1A8C4314EA13
:100BE000C211F9D0C01A0A0603D0C01E10BDC01A27
:100BF00010BD0A0401D0801E10BD0902FCD0401EA9
:100C000010BD40EA010370B59B072ED14FF00136AD
:100C1000042A2AD308C810C99D1B9D43121F15EA38
:100C2000C61517D0D8B2E1B2401A50EA056110D10A
:100C300098B2A1B2401A50EA05410AD123F07F4090
:100C400024F07F41401A50EA052102D1180EA0EB92
:100C5000146070BDA342DBD018BA21BA884201D912
:100C6000012070BD4FF0FF3070BD0AB9002070BD8B
:100C700010F8013B11F8014B63B1A3420AD1521E97
:100C800008D010F8013B11F8014B1BB1A34201D170
:100C9000521EEDD1181B70BD10B5203AC0F00B806C
:100CA000B1E81850203AA0E81850B1E81850A0E870
:100CB0001850BFF4F5AF5FEA027C24BFB1E81850CA
:100CC000A0E8185044BF18C918C0BDE810405FEA3A
:100CD000827C24BF51F8043B40F8043B08BF7047B6
:100CE000D20728BF31F8023B48BF11F8012B28BFBB
:100CF00020F8023B48BF00F8012B70474FF000027C
:100D000000B5134694469646203922BFA0E80C5001
:100D1000A0E80C50B1F12001BFF4F7AF090728BFDC
:100D2000A0E80C5048BF0CC05DF804EB890028BF58
:100D300040F8042B08BF704748BF20F8022B11F081
:100D4000804F18BF00F8012B704700004FF0013CA6
:100D500050F8042B51F8043B9A4221D1A2EB0C032A
:100D6000934313EACC1317D150F8042B51F8043BEA
:100D70009A4215D1A2EB0C03934313EACC130BD187
:100D800050F8042B51F8043B9A4209D1A2EB0C0312
:100D9000934313EACC13DBD04FF00000704700BF41
:100DA000D01A01BAB1FA81F101F0180122FA01F06A
:100DB000CB40C1F12001DBB2C0B2C01A2CFA01F362
:100DC000D11A914311EAC311E6D1704770B5064CB0
:100DD0007C44064D7D4403E0206820448047241D68
:100DE000AC42F9D170BD0000006B0000006B000048
:100DF0002DE9F04117460E46054633B107FB035473
:100E0000E41B2046B047A542FAD1A5F10800BDE891
:100E1000F081000000487047C0060020704770470E
:100E20007047704738B504460A460020694601F00D
:100E3000D0FA002808BF38BD02460099204600F0CD
:100E4000CBFD012038BD012001F08CBAF8B501F0CE
:100E5000B5FA054600200C46102000BF0646A8192A
:100E6000A0420DD932466946002001F0B2FA0700CF
:100E700008BF01F077FA0098A04218BF0546C419D0
:100E8000FFF7C8FF05600746F01D20F00700461970
:100E9000284600F00AF8B44208BFF8BDA21B31464C
:100EA0003868BDE8F84000F097BD00210160C0E956
:100EB000011070471020704770B5044685690068BE
:100EC000C10601D5302600E02026C00707D070BD3E
:100ED000D4E9012130469047206A401C20626D1EF3
:100EE000F6D570BD70B5044685690078C00707D196
:100EF00070BDD4E9012120209047206A401C206267
:100F00006D1EF6D570BD09684A0501D540B270471F
:100F1000C905FCD500B2704709684A0501D5C0B2C1
:100F20007047C905FCD580B2704770B50C460546C0
:100F3000012A05D02878800600D5EA69002302E05E
:100F4000012305E05B1C934202D2E05C0028F9D14A
:100F5000A869E618C01AA861286A184428622846B9
:100F6000FFF7AAFF04E0D5E9012114F8010B90472F
:100F7000B442F8D32846FFF7B5FF70BD2DE9F04124
:100F80000646002410687529314616A510D0FFF7D3
:100F9000BAFF002802DA404213A507E031688A0749
:100FA00001D512A502E0490704D511A5012401E0ED
:100FB000FFF7B2FF00210A2206F1240709E0B0FB87
:100FC000F2FCB0FBF2F302FB1C0030307854184600
:100FD000491C0028F3D123462A463046BDE8F0419B
:100FE00000F059BD000000002D0000002B000000A3
:100FF0002000000011680268006A530501D50870DE
:101000000AE0D30501D5088006E0130603D5C21710
:10101000C1E9000200E008600120704701694A1C34
:1010200002610878704700B58FB0CDE90131002129
:10103000059105497944CDE903101146684600F051
:1010400043F90FB000BD0000E5FFFFFF0A6802F89A
:10105000010B0A607047D1E900239A4202D2531C67
:101060000B60107070470000074B70B50D467B4455
:10107000FFF7D9FF0446284600F0EAF910B14FF017
:10108000FF3070BD204670BD473F00002DE9FF5F77
:1010900015468A460446DFF8AC80F8440027D8E9B4
:1010A00000103E46CDE9001010E03AF816106A46EE
:1010B00002A801F024F9411C07D02178890603D544
:1010C000E269391891420DD80744761C20788006D1
:1010D00002D5E069B84205DDAE42E6DB3AF816001B
:1010E0000028E2D1A069C01BA0612046FFF7E4FE02
:1010F000D8E90010CDE90010002017E03AF81810E8
:101100006A4602A801F0FBF8B0F1FF3F81460BD020
:1011100000250DF1080B05E0D4E901211BF80500BD
:1011200090476D1C4D45F7D308F10100B042804651
:10113000E4DB206A384420622046FFF7D3FEBDE896
:10114000FF9F00006A5A00002DE9F0418046D21D41
:1011500022F007020025D2E90002F52915A614D0D5
:10116000011E72F1000106DA0023D0EB030063EBED
:10117000020211A608E0D8F800108B0701D50FA6CF
:1011800002E0490701D50EA601251146002408F109
:10119000240704E000F03AFC30323A55641C50EA6F
:1011A0000102F7D12B46324621464046BDE8F041C8
:1011B00000F071BC000000002D0000002B000000BA
:1011C0002000000030B4002100F1240408E002F007
:1011D0000705D208303542EA4372DB086554491CE2
:1011E00052EA0305F3D10468002310A2250707D5AE
:1011F000A40600D421B1C46901230DA2641EC461F8
:1012000030BC00F048BC10B5044621461068FFF71A
:1012100083FE02462046BDE810400023D2E7D21DDF
:1012200022F00701D1E90023CCE700000000000014
:1012300030000000F0B40D460188090502D5214CAC
:101240007C4402E01F4C7C440E34002100F1240653
:1012500008E002F00F071209E75D42EA03721B097A
:101260007754491C52EA0307F3D10278002312078E
:1012700004D5702D06D009B1022311342246F0BCEA
:1012800000F009BC01231034F8E770B504460D46A0
:1012900021461068FFF740FE024629462046BDE879
:1012A00070400023C6E7D21D22F00703D3E90023D4
:1012B000C0E70368126843F0200303600823C3619A
:1012C0000023B7E7CC5800002DE9F05F89460446BB
:1012D0004FF0000ADFF874B1FB44C0F820A02046AC
:1012E000E1688847002874D0252806D0D4E9012178
:1012F0009047206A401C2062F1E700265F462046A6
:10130000E16888472028054607DB312D05D278198A
:1013100010F8200C08B10643F1E7B00701D526F01C
:101320000406C4F81CA00027C4F818A02A2D09D070
:10133000284603F05FFC38B304EB8708303DC8F85B
:10134000185019E059F8041B204604EB87029161FC
:10135000E1688847012F054618D1E069002820DAA6
:1013600026F020061DE0D8F8180000EB800005EB01
:1013700040003038C8F818002046E1688847054624
:1013800003F038FC0028EED1012F0AD02E2D08D111
:101390002046E16888477F1C0546022F46F020065C
:1013A000C4DBA069002803DA404246F00106A061D0
:1013B000F00701D026F010066C2D0BD0682D09D057
:1013C0004C2D39D06A2D35D0742D35D07A2D33D0AF
:1013D00016E038E0E1682F4620468847B8420546C7
:1013E00009D16C2F26D04FF48060E1680643204677
:1013F0008847054604E06C2F1AD04FF480700643EE
:101400000DB3A5F14100192802D8203546F4006635
:101410004A462946204626604E46FFF733F880B1FB
:1014200001280BD0F61D26F0070000F1080956E749
:101430004020E4E78020D8E70020D6E706F1040941
:101440004DE7284652E7206ABDE8F09F5C5800004F
:10145000007B00F0800070472DE9F04705460C4600
:10146000C86820F4201040F48000C860800602D5CF
:10147000084600F0D4F9E06841F282014FF0FF39EC
:101480000140022903D0204600F072F9B5E000F4D3
:101490002041B1F5004F0FD1C00306D56168E06A65
:1014A000884200D80846606006E02069E06260601B
:1014B000606903F0E1FBA061A0680022EEB20028A1
:1014C0000DDAE1688B050AD4C043A06041F4903086
:1014D0002260E0606068411C61600670A5E0E06821
:1014E0009046226040F40050E060206968BB60696B
:1014F00003F0DAFB012704F12405A0B1A08910F460
:10150000407F08D0E069FFF711F9206118B1E06869
:1015100040F4006016E0E7612561E06820F4407067
:1015200040F480600EE0E069FFF700F900282061D8
:10153000F1D0E06840F4006010F4407FE06002D138
:1015400040F48070E06020696060E06825696FF0B9
:10155000010AC1051FD56168E06A884200D80846C3
:10156000411B04D02246284600F00CF9F0BBE0688D
:10157000010203D5E562C4E9015854E0691CE16247
:101580006160E16940F48030491EC4E902103046D0
:101590002E70BDE8F087010202D500F480320AE027
:1015A0006068411C61600670E0680A2E40F480307B
:1015B000E06006D00022E16A6068814203D90B46F0
:1015C00002E00122F7E70346A7895B1B7F0503D4EE
:1015D000E7699F4200DDE2B1814200D80146E56241
:1015E0000F1AC4E90158002B09DD00E005E022468E
:1015F0001946284600F0C6F808B14846C9E747B181
:10160000A069E5626560C01BA061E06840F0100061
:10161000E060E068000208D56168A069E562491BE6
:1016200008446560A0615046B3E73046B1E700006A
:101630002DE9F041044616460D464769007B8007B8
:101640002ED0384603F030FB50BB3EB3012E02D003
:10165000022E25D104E0204600F030FE05441DE0B6
:10166000384603F009FBE168002841F01001E16011
:1016700005DA204600F07CF80120BDE8F081C903BE
:101680000BD56268E16A914200D81146A269114403
:101690002269891A814200DD08460544002D01DADD
:1016A0000220EAE7E16A6068E268814206D29103BB
:1016B000E06203D522F4003141F01002A669002750
:1016C000AE4213DCE16A814201D90B4600E00346D9
:1016D00003EB060C2369ACEB030CAC4506DD814241
:1016E00001D98C4600E084469C4505D1A76027605F
:1016F00042F02000A5620DE0AD1BE669AE1B814201
:10170000A66000D90846C01A281A206058196060DF
:1017100022F0200003490840E060002084F848706F
:10172000ABE70000BFCFD7FF70B5C468A50713D0E3
:10173000650211D4B2F5807F09D0B2F5007F06D0E2
:10174000B2F5806F08D1012300F1240106E05D1E8F
:101750006FF07F46B54201D3012070BD0161C361C6
:10176000416024F470611143C160002070BD00002D
:10177000C16821F4001141F08001C1600021816045
:10178000016070472DE9F047814614460E464FF040
:10179000FF383248D5685769054209D03846A169F3
:1017A00003F0E6FA002811DB2C48C0430540E56051
:1017B0002B4632464946384603F0F6FAA16920F036
:1017C0000042B21A11440028A16103D02046FFF75D
:1017D000CFFF4046BDE8F08770B504460569C06A92
:1017E0006168884200D80846E16821F42011E16070
:1017F000C90312D5A84208D02246411B2846FFF74C
:10180000C1FF10B14FF0FF3070BD0020E562C4E9A8
:101810000150E06820F48030E060002070BD10B519
:101820000446C06820F02000E060A16AA0698842F8
:101830000DD02046FFF7D0FFE06820F4405040F084
:101840001000E060A06AA0612069E062606044F27C
:101850004001E0688843E06010BD00001000020015
:1018600010B542485421FFF749FA41485421FFF787
:1018700045FA40485421FFF741FA3F493B483C4A6A
:101880003F4B08603D490A603A491960531C0365A3
:10189000481C1065012008653B48344A39A178444A
:1018A000FFF79CF820B9384878440A3800F053FD17
:1018B00037482F4A35A17844FFF790F820B93448CB
:1018C00078440A3800F047FD32482A4A2FA178446C
:1018D000FFF784F820B92F4878440A3800F03BFD20
:1018E00040232248DC0000212246FFF71DFF20B1E3
:1018F00025487844543800F02EFD1D4822464023E8
:101900000021FFF711FF20B121487844543800F03E
:1019100022FD1848224610230021FFF705FF00286A
:1019200006D01C487844BDE81040563800F013BD7E
:1019300010BD104870B5006D20F001040B48FFF792
:10194000CDF80B48FFF7CAF80A48FFF7C7F809E0D7
:10195000206D20F001052046FFF7C0F82046FEF775
:1019600014FF2C46002CF3D170BD0000C4050020EC
:10197000180600206C060020140100201801002029
:101980001C0100207200000082500000770000005F
:10199000715000006150000010B5002000F0D4FC30
:1019A000AFF30080BDE81040012000F00FB810B583
:1019B00000F0E0FCBDE8104000F0C1BC08B569468D
:1019C0008DF800000320ABBE08BD000001491820BF
:1019D000ABBEFEE726000200034640688C460028A6
:1019E00018BF88423CBF03464068F8D318681844C3
:1019F000884207D00CF1030020F00700001D411AB7
:101A0000521A0146081D0A60FEF7BFBE30B5B0F19C
:101A10000A024FEA900E71F100034EEA817EB0EBAC
:101A20000E0061EB91014FEA101E4EEA017E10EBB1
:101A30000E0041EB11114FEA102E4EEA016E10EB31
:101A40000E0041EB11214FEA104E4EEA014E10EB11
:101A50000E0041EB1141401841F100014FEAD00066
:101A600040EA41704FEAD10110EB80054FEA810452
:101A700044EA907444EB01046D1944EB0404521BD6
:101A8000A3414FF0000348BF0A3200D530BD401CCF
:101A900041F1000130BD2DE9F0470D4699469246CF
:101AA000044600F124080168880604D5E06921F0A5
:101AB0001001216000E00120A84201DD471B00E089
:101AC0000027A1697A1902EB0900081AA0612078A1
:101AD000C00602D42046FFF7EFF9002608E0D4E95B
:101AE00001211AF806009047206A401C761C2062EB
:101AF0004E45F4DB2078C0060AD52046FFF7DCF916
:101B000006E0D4E9012130209047206A401C206281
:101B1000381EA7F10107F4DC07E0D4E9012118F829
:101B200005009047206A401C2062281EA5F101058F
:101B3000F3DC2046FFF7D6F92078000602D5022014
:101B4000BDE8F0870120FBE770472DE9FF4F0C4609
:101B50001E464FF0FF378BB0D2E90001DDF8608000
:101B60000A908A46C1F30A5505B93D460021084648
:101B70004FF00000BAF1000F00F4400005DA00EB6E
:101B800080004FF4400101EA50004FEA9059B9F14A
:101B9000010F00DDB9460A9850EA4A000ED044F61B
:101BA0001050A5F2FF3545432F14B8F1000F1ED099
:101BB0007542291E1EDDC9F100021CE0B8F1010FBB
:101BC0004FF0000001D0302103E0F24305E0215442
:101BD000401CB042FBDB30460022002121540B990F
:101BE000C1F80880C1E900200FB0BDE8F08FBD1B2F
:101BF0006D1CDEE74A4600DA694206A800F054FC94
:101C000006AB93E8070003AB83E8070050460A9948
:101C100000F030FD8DE80700A0F500501F3800905F
:101C20000398002D0ADD42F21F014A4608440023B2
:101C300003A90390684600F099FF09E0A0F5005061
:101C40004A461F38002303A90390684600F0A3FF0B
:101C50008DE807000004000C03D04FF0FF3041086E
:101C600000E01046B8F1000F03D0002200921546A4
:101C70001EE0751E05D4FFF7C9FE303262556D1E99
:101C8000F9D5B3460122084302D000227F1C04E0AC
:101C90002078302801D100227F1E002A099784D0A5
:101CA0001DE0112D07DAFFF7B1FE303262556D1CD1
:101CB00050EA0102F5D1084302D00098C8B10EE005
:101CC0000021681E05E0235C625C63542254401EC0
:101CD000491C8142F7DBAB46A81B401E099000203F
:101CE00004F80B000B98099AC0F80880C0E9002B93
:101CF0007AE711264FF0000857E72DE9F04F8846A4
:101D00000446D21D22F0070191B0D1E90001CDE9CE
:101D10000A0102F087FE02460B98C00F01D02D2069
:101D200007E02068810701D52B2002E0202101EA8D
:101D3000C000032A099001D0072A05DB034641466B
:101D4000204600F071FB0BE12078800601D5E069A8
:101D500000E00620B8F1650F814606D0B8F1660FA5
:101D600018D0B8F1670F70D131E00020B9F1110F30
:101D7000009001DB112301E009F101030AAA01A986
:101D80000CA8FFF7E2FEDDE90C70002609F1010561
:101D9000834647E001204B4600904FF000470AAAD7
:101DA00001A90CA8FFF7D1FEDDE90DB00C995D4645
:101DB000002610B909F101000D18B9EB050003D494
:101DC000C0F1FF3609F10105A5EB09002BE0B9F1DF
:101DD000010F01DA4FF001090020B9F1110F009055
:101DE000484601DD112300E003460AAA01A90CA818
:101DF000FFF7ABFEDDE90C704D46002683462078E8
:101E000000070AD4AB4500DA5D4601A8012D04DDC8
:101E1000411911F8011C302907D04F4502DA17F19A
:101E2000040F04DA012082460FE06D1EEEE7002F5A
:101E300002DCED1B3E4403E0781CA84200DD7D1C63
:101E4000B81B00F1010A4FF000472078000703D4C7
:101E5000AA4501DB4FF0FF3A0021B7F1004F0DF129
:101E600043088DF8431024D002202B23002F01DAE1
:101E70007F422D230A21021EA0F1010000DC5FB188
:101E800097FBF1FC97FBF1F201FB1C7C17460CF170
:101E9000300C08F801CDEEE7A8F1010003702188AD
:101EA000090501D5452100E06521A0F1010800F8F0
:101EB000011C09980FA9A1EB0807FF1D00B1012023
:101EC000411901EBEA70A1693844081A401EA0616B
:101ED0002078C00602D42046FEF7EEFF099828B10C
:101EE000D4E901219047206A401C20622078C00676
:101EF00022D52046FEF7E0FF1EE0002E04DBB345AE
:101F000002DD01A8805D00E03020D4E90121904786
:101F1000206A401C2062761CAAF101005FEA000AD8
:101F20000AD100F07DFAC0680168405CD4E9012163
:101F30009047206A401C2062281EA5F10105DCDCC8
:101F400007E0D4E9012118F8010B9047206A401CF2
:101F50002062381EA7F10107F3DC2046FEF7C2FF1E
:101F6000032011B041E600002DE9F04F04460D4674
:101F7000D21D22F0070089B0D0E9009748463946C3
:101F800002F050FD0246F80F01D02D2307E0206833
:101F9000810701D52B2302E0202101EAC0038DF83F
:101FA00020300BB1012000E00020032A824601D03E
:101FB000072A04DB2946204600F036FA3FE1207864
:101FC000800601D40D2500E0E569C7F30A560D2D02
:101FD00049DA00214FEA175B08464FF00000002F56
:101FE00000F4400007DA00EB80004FF4400100EB02
:101FF000D07001EA60008115012901DD4FF0FF3149
:1020000000224FEA850CBCF1180F06D31346ACF141
:1020100018004FF08052C24003E04FF4801323FABF
:102020000CF30CF10C0CBCF1200F04D3ACF1200C20
:1020300009FA0CF001E007FA0CF000294FF0004813
:1020400001DD18B90FE00ED140450CD319EB0209A0
:102050005F4121B9404502D19F4329EA0209BBEB08
:10206000175F00D0761C2088000502D57B48784495
:1020700002E07A487844193808AA302302F80A3076
:10208000037C0AF10101002E0AF1020A53546A4648
:1020900002DC4FF0300101E04FF031014FF0010858
:1020A0008DF8001002D0A6F2FF3603E059EA47018E
:1020B00000D06B4E002D02DC2178090704D54FF0CB
:1020C00002082E218DF80110C44600210BE0C7F351
:1020D00003433F01C35C491C6D1E02F8083005290B
:1020E00008F1010801DA002DF1DC00210CE000EB21
:1020F0001973491C1B786D1E082902F808304FEA35
:10210000091908F1010801DA002DF0DC21688B06BD
:1021100002D516E0A8F10108E04505DD02EB080351
:1021200013F8013C302BF5D0B8F1000F09DD02EBBC
:10213000080313F8013C2E2B03D1090701D4A8F1A1
:102140000108002D05DD3E2102F808106D1E08F182
:102150000108407C002E02F8080008F1010804DAAA
:102160002D20764202F8080002E02B2002F8080039
:102170000A214FF47A70864208F101080BDB96FBC6
:10218000F0F3303302F8083096FBF0F308F1010861
:1021900000FB136601E0642E0CDB642096FBF0F379
:1021A000303302F8083096FBF0F308F1010800FB29
:1021B000136601E00A2E06DB96FBF1F0303002F8E0
:1021C000080008F1010896FBF1F001FB10603030C7
:1021D00002F80800A16908F1010808EB050202EB0A
:1021E0000A00081AA0612078C00602D42046FEF733
:1021F00063FE216A08AE01EB0A00206204E0D4E924
:10220000012116F8010B9047BAF1010AF7D22078A4
:10221000C00602D52046FEF74FFE6E4609E016F8CE
:10222000010B3E280FD0D4E901219047206A401CC1
:102230002062B8F10108F2D22046FEF753FE09B041
:102240000320BDE8F08F206A2844206203E0D4E92F
:102250000121302090476D1EEBD3F8E7EA4A0000D9
:1022600002FCFFFF10B5436913B1AFF3008001E03A
:10227000FEF75BFE012010BD127800F124010A7008
:1022800000224A700122EDE711684FF0FF32E9E7C2
:1022900010B5436913B1AFF3008001E0FEF7F6FE1D
:1022A000012010BD128800F1240182840022C28422
:1022B0000122EDE711684FF0FF32E9E710B5014662
:1022C000C268900703D0900607D5886A0AE0FEF737
:1022D00029FA01210160881E10BD8B6948681844E5
:1022E0000B69C01A91F848301BB191F84910401A97
:1022F00010BD1103FCD50028FADD401E10BD70B5DD
:1023000016460C46054600F083F8036893F8010171
:10231000012806D0FF2C0FD8185D68B101202C7061
:1023200070BDD3F807013246214603F20713034478
:102330002846BDE8704018474FF0FF3070BD0028B8
:1023400001D0FFF743BB704710B500F039F9BDE885
:102350001040FFF7F4BF10B500F04AF9BDE8104097
:10236000FFF7EDBF10B500F05DF9BDE81040FFF7D5
:10237000E6BF000010B5002102A000F007F901201F
:1023800010BD00005349475056464E3A20507572D2
:1023900065207669727475616C20666E2063616C6D
:1023A0006C65640010B50449FEF706FBBDE81040FB
:1023B0000148FEF7EABA00006C060020124B69469D
:1023C00000F580528A421A6001D8114670471960A0
:1023D000704730B50C4D6B46A3F580532C682244F2
:1023E0009A420FD89B1A02F5805003EBD37302EB8D
:1023F0006303984200D91846C01D20F007020C6004
:10240000101B2A6030BD0000200100207047000032
:1024100010B500F005F8001D10BD00BF75420000AA
:1024200000487047C40600202DE9F0411F460446CD
:1024300003260168072A01F4006004DB08B116A531
:1024400005E016A503E008B115A500E015A521F0EB
:1024500010002060A069C01EA0610FB1401EA061E5
:102460002046FEF729FD4FB1D4E9012138469047B7
:10247000206A401C2062C01C206206E0206AFAE745
:10248000D4E9012115F8010B9047761EF8D22046B9
:10249000FEF728FDBDE8F0814E414E006E616E00F2
:1024A000494E4600696E66002DE9F04781461646A2
:1024B0008AB0354878440DC88DE80D00324878441C
:1024C000801C03AC0DC884E80D0041F69B30084425
:1024D000372190FBF1F290FBF1F5A5F1800501FBAE
:1024E00012041B3C02D56442012000E00020DFF80A
:1024F00098A080460027FA44AAF1BE0A0EE0E00741
:102500000AD03246684607EB470101230AEB8101F6
:1025100000F041FB8DE8070064107F1C002CEED119
:10252000194F7F44AE3F19E0E80715D007EB0410C0
:102530000DF1180A90E80E008AE80E00C068F0421B
:1025400001D1981908903246012306A903A800F08A
:1025500022FB03AB83E807006D10641C002DE3D160
:102560004FF0010332466946B8F1000F03A802D0CC
:1025700000F0FCFA01E000F00EFBC9E90001C9F827
:1025800008200AB0BDE8F0873447000070B5054662
:102590000C460A2000E06D1CFFF710FA35B12878D0
:1025A0000028F8D102E0641CFFF708FA14B1207883
:1025B0000028F8D1BDE870400A20FFF7FFB90000FD
:1025C00010B5002102A0FFF7E1FF012010BD0000BF
:1025D000534947414252543A2041626E6F726D61D5
:1025E0006C207465726D696E6174696F6E000000B5
:1025F00010B5014602A0FFF7C9FF012010BD000081
:1026000053494752545245443A20526564697265B1
:1026100063743A2063616E2774206F70656E3A2090
:102620000000000010B5012805D0002103A0FFF72D
:10263000ADFF012010BD09A1F8E700005349475242
:10264000544D454D3A204F7574206F662068656182
:1026500070206D656D6F7279000000003A2048654A
:102660006170206D656D6F727920636F7272757025
:10267000746564005FEA400C08BF91F0000F4FEAF8
:102680008C234FEAC12243EA51514FEA1C5018BF34
:1026900000F5F0404FEA300018BF41F000415FEA1A
:1026A0006C5C00F02980BCF1FF3F08BF40F0804027
:1026B0007047130C06BF12044FF0100C4FF0000CC3
:1026C000130E04BF12020CF1080C130F04BF120109
:1026D0000CF1040C930F04BF92000CF1020CD30F09
:1026E00004BF52000CF1010C11464FF00002A0F1A2
:1026F0001F00A0EB0C00704711F0004F08BF70479F
:1027000031F000413FF4D5AF0B0C06BF09044FF088
:10271000100C4FF0000C0B0E04BF09020CF1080C5A
:102720000B0F04BF09010CF1040C8B0F04BF8900CF
:102730000CF1020CCB0F04BF49000CF1010CCCF1E1
:102740002003A0EB0C0022FA03F302FA0CF241EA98
:10275000030100F10100704720F07F4C80EA030084
:1027600023F07F47ACEB070303F57C5300F00040F8
:1027700003F1FF032DE980494FEA154B09B44FEAF5
:10278000144325EA0B4E24EA03480FF2042606EB15
:10279000132749083E785FEA320203FB0667C7F554
:1027A000000707FB06F64FEA54374FEAD64606F114
:1027B000020607FB066CCCF1005C4FEA1C472CEAD2
:1027C000074C07FB06F40CFB06F504EB15464FEA35
:1027D000961634BF00204FF000404FEAD13706FB79
:1027E00007FC4FEA1C4C0CFB0BF7D21B03FB0CF74E
:1027F00061EB07010CFB0EF7B0EB074072EB1742E1
:102800000CFB08F734BFA2EB0742B2EB074261EBC7
:1028100017414FEA0C444FEA910706FB07FC4FEAC9
:102820001C4C0CFB0BF7B0EBC74072EB573203FBB1
:102830000CF734BFA2EBC742B2EBC74261EB573192
:102840000CFB0EF7B0EBC70072EB57720CFB08F7EE
:1028500034BFA2EBC702B2EBC70261EB5771039F13
:102860004FEA816141EA921104EBCC044FEAD1377F
:102870004FEA826206FB07FC42EA90124FEA806050
:102880004FEA1C4C0CFB0BF7D21B03FB0CF761EB64
:1028900007010CFB0EF7B0EB074072EB17420CFB85
:1028A00008F734BFA2EB0742B2EB074261EB1741D6
:1028B0004FEA8C554FEA910704EB9C2406FB07FC7A
:1028C0004FEA1C4C0CFB0BF7B0EBC74072EB5732D6
:1028D00003FB0CF734BFA2EBC742B2EBC74261EB7C
:1028E00057310CFB0EF7B0EBC70072EB57720CFBC5
:1028F00008F734BFA2EBC702B2EBC70261EB577116
:1029000015EB4C254FEA816141EA92114FEA826250
:102910004FEAD13742EA901206FB07FC44F100046B
:102920004FEA80604FEA1C4C0CFB0BF7D21B03FBF9
:102930000CF761EB07010CFB0EF7B0EB074072EBF5
:1029400017420CFB08F734BFA2EB0742B2EB074279
:1029500061EB174115EB1C154FEA813141EA9241B9
:102960004FEA823242EA90424FEA80304FEA0C76D8
:1029700044F1000448EA03434EEA0B484FF0000ECE
:10298000B2EB080C71EB030724BF624639464EEBED
:102990000E0E4FF0000B0018524149414BEB0B0B50
:1029A000B2EB080C71EB03077BF1000B24BF62460E
:1029B00039464EEB0E0E4FF0000B001852414941C4
:1029C0004BEB0B0BB2EB080C71EB03077BF1000B2D
:1029D00024BF624639464EEB0E0E51EA020718BF7D
:1029E00046F0010616EB0E7655F1000254F1000197
:1029F00003D5BDE88901BDE80088BDE88901BDE8CF
:102A00000048B619524141EB0101A3F1010370479F
:102A100080807F7E7D7C7B7A79787776767574731B
:102A2000727171706F6E6E6D6C6C6B6A6A696868DA
:102A3000676666656464636362616160605F5F5E70
:102A40005E5D5D5C5C5B5B5A5A59595858575756E6
:102A5000565555555454535352525251515050504B
:102A60004F4F4F4E4E4D4D4D4C4C4C4B4B4B4A4A9D
:102A70004A494949484848474747474646464545E1
:102A8000454444444443434343424242424141411A
:102A9000002B9C4630D477002BD01CB54FEA37076B
:102AA00003B44FF010004FF01001BAF1000F06D040
:102AB000BCF1000FDCBF40F0080040F008014FF00F
:102AC00000000FBCBDE810400BF1010BBBF1010F82
:102AD00008BF5FEA170722BF12F1010211F10101DD
:102AE0004FF0004143F1000300F0004043EA0000D2
:102AF0007047F9D35708D0E746EA064613F1400F6E
:102B00004FEA16461FDD13F1200FDFBF16430A46BA
:102B1000002120335B42BED0C3F1200746EA0646BF
:102B200002FA07F74FEA164646EA0706C3F12007FE
:102B300022FA03F201FA07F721FA03F14FF000033A
:102B400042EA0702A7E746EA020646EA06464FEAD5
:102B5000164646EA0106BCBF46EA0646360C4FF06A
:102B600000034FF000024FF0000194E72DE9804C84
:102B70009A46934670B491E8380007C831EA400C91
:102B800048BF34EA430C03D5FFF7E6FDFFF780FFAB
:102B9000F0BCBDE8008C2DE9804C9A46934670B499
:102BA00091E8380007C810F0804F08BF13F0804F3D
:102BB00003D100F005F8FFF76BFFF0BCBDE8008C17
:102BC00020F07F4780EA030023F07F4C07EB0C03E3
:102BD000A3F57C5300F00040A3F1FE0392F0000F38
:102BE00000F0B38095F0000F00F077802DE90149E7
:102BF0004FEA11404FEA144621EA004800FB06FC68
:102C000024EA064708FB06F607FB08F800FB07F76F
:102C100018EB06484CEB164C4FEA124B18EB0748E2
:102C20004FEA15464CEB174022EA0B4E0BFB06FC15
:102C300025EA06470EFB06F607FB0EFE0BFB07F721
:102C40001EEB064E4CEB164C4FF000061EEB074EEB
:102C50004CEB174B18EB0B0840F1000018EB0E0B78
:102C600058EB000840F100008F1A4FF000013CBF04
:102C7000C943661B14BFB5EB040C00213CBFC9431C
:102C8000F61B4FEA17444EEA8E0E27EA04454FEA38
:102C90001C4704FB07622CEA074C05FB07F70CFBFB
:102CA00005F604FB0CFC16EB074642EB174216EB4D
:102CB0000C4642EB1C421BEB060658EB020241415C
:102CC00046EA9E0601D5BDE80189B619524141EB9D
:102CD0000101A3F10103BDE801894FEA14454FEA60
:102CE000114724EA054621EA074C05FB07F406FBD9
:102CF00007F70CFB06F105FB0CFC11EB074144EB5D
:102D000017444FEA124711EB0C4144EB1C4422EAF2
:102D1000074C05FB07F206FB07F70CFB06F605FB65
:102D20000CFC16EB074642EB174216EB0C4642EB47
:102D30001C456A1854F1000148BF7047B61952414A
:102D400041EB0101A3F10103704795F0000F37D06B
:102D50004FEA11424FEA144721EA024624EA074C9F
:102D600002FB07F106FB07F70CFB06F402FB0CFC69
:102D700014EB074441EB17414FEA154714EB0C44A1
:102D800041EB1C4125EA074C02FB07F506FB07F760
:102D90000CFB06F602FB0CFC16EB074645EB174551
:102DA00016EB0C4645EB1C42121951F1000148BFCD
:102DB0007047B619524141EB0101A3F1010370477D
:102DC0004FEA14454FEA114724EA054621EA074C29
:102DD00005FB07F106FB07F70CFB06F24FF00006B8
:102DE00005FB0CFC12EB074241EB174112EB0C42C6
:102DF00051EB1C4148BF7047921841EB0101A3F110
:102E00000103704710B502F053FCBDE8104002F01A
:102E10009DBA0021016041608160C160704700007F
:102E20000F4910B54FF0927048640E4C04F1140035
:102E300000F0C2FA0D490C4804F1080208600021B4
:102E4000084600F039F800221146022000F014FB79
:102E500004F10C0000F0A2FB06490548086010BD13
:102E600000800440B068000080F0FA0220000020DA
:102E7000000E2707D0000020074810B5016829B1CF
:102E8000054A06485268BDE81040104740F21F52FC
:102E9000034904A0FDF748FE440000200040024022
:102EA000A4700000735F666C657863616E48616E44
:102EB000646C655B305D000070B514000D4611D088
:102EC00000F0B8FA2146284600F01CFB08480178BB
:102ED00021F0C00101708179C1F381010329FAD188
:102EE000002070BD40F25D62024903A0FDF71CFEA8
:102EF00000400640E86E0000636F6E666967000080
:102F000010B5A0B1417801F01F020C490A71837815
:102F10004A7963F304024A710A790078104340F059
:102F200040000871887910F0400FFBD010BD4FF4BD
:102F30005272034903A0FDF7F7FD00000040064070
:102F4000E86E0000636F6E6669670000154810B593
:102F50000068C0F38141144839B1022918D003290F
:102F600004BF4FF47A7010BD0AE01049097811F0DF
:102F7000800F05D0806828B1B0F5004F08BF10BDA4
:102F8000002010BD40F2651209490A48FDF7CCFD4A
:102F9000C068002818BF10BD40F27912044906A08D
:102FA000FDF7C2FD007004401800002000500640EC
:102FB000E86E000060320000675F7874616C333245
:102FC0004672657100000000234A10B5907910F038
:102FD000100F22481CBF006810BD117B11F00301C7
:102FE00006D001290BD0022908BF1D4809D024E0D2
:102FF000806830B9D4221B491B48FDF795FDC06895
:10300000B0B111785378C1F3C201C840127BC3F349
:10301000011302F0030203B112B1022A18BF10BD5E
:1030200008290AD2DFE801F00B0B0B0B0B0B0D127A
:10303000D9220C490D48FDF777FD002010BD40094D
:1030400010BD0B49A1FB0010000910BD0949A1FBEF
:103050000010C00810BD000000400640180000200D
:10306000006CDC02E86E000060320000B82F000047
:10307000CDCCCCCCABAAAAAA10B5142852D2DFE88A
:1030800000F00A0A121C26A430486AA4A47B879B7D
:10309000B9A4A4A4BDBF00F0E9F85B49496C0122C2
:1030A00002EB11711AE000F0E1F85749496CC1F3E5
:1030B0000361491CB0FBF1F010BD00F0D7F8524994
:1030C000496CC1F30351491CB0FBF1F010BD00F095
:1030D000CDF84D49496CC1F30341491CB0FBF1F0F7
:1030E00010BD49484068C0F3014020B101286ED0AE
:1030F00003286DD069E0454C607810F0020F04BFE2
:10310000A07910F0200F60D1FFF75EFF002865D195
:1031100010BD3F480068C0F3814020B102280FD0A5
:1031200003286DD051E03B48007810F0800F4CD060
:1031300039488068D0B1B0F5004F08BF10BD44E0F9
:103140003548C068002818BF10BD40F279123349D5
:103150003348FDF7E9FC2F48007810F0800008BFE5
:1031600010BD2D488068002818BF10BD40F26512C0
:103170002A492C48FDF7D8FCFFF726FF040024D08D
:1031800000F074F8B4EBD00F9CBF204610BD1CE0DB
:103190001E48017811F0020F17D0817911F0010F4C
:1031A00002BF1D48006810BD007A1B49C0F34200F1
:1031B000496821FA00F010BD144C607810F0020F3D
:1031C00004BFA07910F0200F03D0002010BD11E043
:1031D00014E0FFF7F9FE002808BF10BDE178E2789F
:1031E000C1F34111104BD20903EB810131F81210E8
:1031F000484310BDBDE8104000F09AB80B4810BD20
:103200004FF47A7010BD000000800440004006407A
:10321000007004400050064018000020E86E0000D6
:10322000B82F00006032000070680000006CDC0203
:103230000848007810F0800008BF70470648806892
:10324000002818BF704710B540F26512034904A06A
:10325000FDF76AFC0050064018000020E86E0000F0
:10326000675F7874616C30467265710010B5294CE7
:10327000A079C0F3810151B12748012920D002294A
:103280002AD0032932D1BDE8104000F051B860784F
:1032900010F0020F04BFA07910F0200F26D1FFF725
:1032A00093FE002808BF10BDE178E278C1F3411118
:1032B0001A4BD20903EB810131F81210484310BDBB
:1032C000A17911F0010F04BF006810BD217A406898
:1032D000C1F34201C84010BD217B11F0030107D0AA
:1032E00001290ED0022904BF0D4810BD002010BDD9
:1032F0008068002818BF10BDD4220A490A48FDF78B
:1033000013FCC068002818BF10BDD9220549074822
:10331000FDF70AFC0040064018000020706800001D
:10332000006CDC02E86E000060320000B82F000084
:10333000184910B5887910F0400008BF10BD087B0F
:1033400010F0030214480BD0012A10D0022A08BF43
:1033500012480ED040F27E22114912A0FDF7E4FB84
:10336000806830B9D4220E491148FDF7DDFBC068F2
:1033700058B10A79497902F01F02521CB0FBF2F0F1
:1033800001F01F011831484310BDD92204490948F2
:10339000FDF7CAFB0040064018000020006CDC026C
:1033A000E86E00006D6367706C6C30636C6B0000DE
:1033B00060320000B82F0000016849F69702914280
:1033C00098BF002104D9184A914294BF01210221DB
:1033D000164A037992F800C02CF00F0C4CEA030354
:1033E0001370137890F806C023F0A0034CEA03038F
:1033F0001370437921F0704143EA011101F03C035D
:103400000B4991F801C02CF03C0C43EA0C034B70C3
:10341000407900281ABF107810F0800F7047887923
:1034200010F0020FFBD0704700127A0000500640E7
:10343000004006400F490A7B02F00302824214BF9B
:10344000012200220B7B60F301030B7338B948782B
:1034500010F0040F03D0887910F0020FFBD032B1C6
:1034600000BF00BF40F2D95000BF401EFCD2002078
:103470007047000000400640214B30B493F806C06E
:10348000CCF3810493F806C01D7A0CF0010CC5F34F
:103490004205AA421FD0BCF1000F12D0012C04D06B
:1034A00093F800C01CF0020F0BD093F801C02CF071
:1034B000010C83F801C000BF93F806C01CF0010F97
:1034C000FAD193F808C052002CF02F0CC2F342023C
:1034D0004CEA42021A725A7861F300025A701A7862
:1034E00060F301021A70012C02D010F0020F04D018
:1034F000987900F001008842FAD130BC0020704772
:103500000040064010B5002935D02148427822F00D
:1035100002024270027822F0C40242F0800202707D
:10352000827902F01C02082AFAD1427922F0400284
:103530004271827912F0200FFBD111B34A7802F068
:103540001F0202718B78427963F30402427102799F
:103550000978114341F040010171817911F0400F68
:10356000FBD0417941F040014171817911F0200F88
:10357000FBD0002010BD40F2BE5206490648FDF7C0
:10358000D3FA4FF4527203490348FDF7CDFA000015
:1035900000400640E86E0000442F000007494268E2
:1035A0004A6402784B6862F311434B6004494078E7
:1035B0000A6860F393420A6070470000008004408C
:1035C000007004400148006800F05CB8BC020020B4
:1035D0000148806A00F056B8BC0200200148C06A69
:1035E00000F050B8BC0200200148006B00F04AB85F
:1035F000BC0200200148406B00F044B8BC0200202F
:103600000148806B00F03EB8BC0200200148C06B4E
:1036100000F038B8BC0200200148406800F032B821
:10362000BC0200200148806800F02CB8BC020020D9
:103630000148C06800F026B8BC02002001480069BB
:1036400000F020B8BC0200200148406900F01AB820
:10365000BC0200200148806900F014B8BC020020C0
:103660000148C06900F00EB8BC0200200148006AA1
:1036700000F008B8BC0200200148406A00F002B81F
:10368000BC02002010B528B18268017CD177C368E4
:1036900033B110E040F23A32254926A0FDF744FA52
:1036A000D0F800C0BCF1000F05D041680023BDE890
:1036B000104001226047017C41F2180C82680CEB3B
:1036C000411C52F80CC041F21C0404EB4111515A48
:1036D000C1F3C012ACEB0301490972B190F911308A
:1036E000C9B28B420FD190F9133090F914C06345E1
:1036F00014BF002390F913300CE0002908BF90F9A3
:103700001410491EEAE790F91130CB1A44BF90F922
:1037100014C063444174C17CC91AC174D0F800C09C
:10372000BCF1000F08BF10BD4168BDE81040604704
:103730001070000068616E646C6520213D204E555C
:103740004C4C00000248024A0168D2680148104708
:103750003400002000000C400248024A01689268D0
:10376000014810473400002000000C400248024A83
:1037700001685268014810473400002000000C40E6
:1037800010B508480849C278096812F0100F074AB6
:1037900005BF837813F0200F126852689047BFF37B
:1037A0004F8F10BD00600640FC0200204C0000203E
:1037B00010B508480849C278496812F0100F074A46
:1037C00005BF837813F0200F126852689047BFF34B
:1037D0004F8F10BD00700640FC0200204C000020FE
:1037E00010B508480849C278896812F0100F074AD6
:1037F00005BF837813F0200F126852689047BFF31B
:103800004F8F10BD00600E40FC0200204C000020D5
:10381000074810B5416829B1074A06485268BDE813
:10382000104010474FF48462044905A0FDF77CF96D
:103830005C00002000F0024054000020D071000025
:10384000735F73616948616E646C655B305D5B31A9
:103850005D000000074810B5016829B1074A064815
:103860001268BDE81040104740F21A42044905A012
:10387000FDF75AF95C00002000F0024054000020DF
:10388000D0710000735F73616948616E646C655B41
:10389000305D5B305D00000008B50421684601F032
:1038A000D9FB08BD10B541B1144A1268824209D053
:1038B0004822134913A0FDF737F94F2210491BA0E6
:1038C000FDF732F91B4A1C4B126803EB1243D3F885
:1038D00000C0012404FA02F24CEA02021A600268F3
:1038E00022F00202026009780029016814BF21F069
:1038F000010141F00101016010BD0000D06800002D
:103900003C710000696E7374616E6365203C2046F3
:10391000534C5F464541545552455F534F435F50AA
:1039200049545F434F554E5400000000636F6E666C
:1039300069670000D468000000700440074810B5B3
:10394000016829B1054A06485268BDE81040104791
:103950004FF4A962034904A0FDF7E6F864000020D3
:1039600000100B4064720000735F73646863486109
:103970006E646C655B305D000B4810B5016841B149
:103980000A480268D30F0A4A09D05268BDE81040BD
:10399000104740F26162074907A0FDF7C5F8926839
:1039A000BDE8104010470000B002002000C00240F7
:1039B000280000207C6F0000675F647370694861B5
:1039C0006E646C655B305D000B4810B5416841B1B9
:1039D0000A480268D30F0A4A09D05268BDE810406D
:1039E000104740F26962074907A0FDF79DF8926809
:1039F000BDE8104010470000B002002000D0024097
:103A0000280000207C6F0000675F64737069486164
:103A10006E646C655B315D000B4810B5816841B127
:103A20000A480268D30F0A4A09D05268BDE810401C
:103A3000104740F27162074907A0FDF775F89268D8
:103A4000BDE8104010470000B002002000C00A404E
:103A5000280000207C6F0000675F64737069486114
:103A60006E646C655B325D000748016841F470016B
:103A7000016006484CF22051C1814DF62811C181E8
:103A80004FF4E9710180704788ED00E000200540A7
:103A90000248044A016812680148104708030020E0
:103AA00000A006406C0000200248044A41681268E9
:103AB000014810470803002000B006406C000020B9
:103AC0000248044A81681268014810470803002030
:103AD00000C006406C0000200248044AC168126819
:103AE000014810470803002000D006406C00002069
:103AF0000248044A0169126801481047080300207F
:103B000000A00E406C0000200248044A416912687F
:103B1000014810470803002000B00E406C00002050
:103B2000427922F0C00242EA112242710A0E8274E6
:103B300011F0170F1CBF0279C27911F0080F05D0E0
:103B40000279C279427C42F04002427402794379A0
:103B500042EA0322037B807C42EA034242EA00609D
:103B6000084018BF40F2EE3070470000084A11408C
:103B700002788A430270C27822EA1122C2708279E6
:103B800022EA11428271427C22EA1161417470473B
:103B9000C0F00F07084A114002780A430270C27849
:103BA00042EA1122C270827942EA11428271427C59
:103BB00042EA116141747047C0F00F0710B558B167
:103BC0004FF4E131016000210171417181710122E5
:103BD000C2710172417210BD40F25D12014902A032
:103BE000FCF7A2FFF8720000636F6E666967000061
:103BF000C1788279090241EA02410278407C11438E
:103C000041EA00600149084070470000C0F00F071A
:103C100010B502460621094B002000BF53F820C012
:103C200094451CBF401C8842F8D3884238BF10BD61
:103C3000A922034903A0FCF777FF0000E068000019
:103C4000F8720000696E7374616E6365203C2075C4
:103C50006172744172726179436F756E7400000015
:103C60000179427941EA0221027B807C41EA0241EA
:103C700041EA0060704700002DE9F047002926D096
:103C8000D1F800C0BCF1000F26D0654D654E664FDF
:103C9000664B674CDFF89C81A84214BFB0424FF0DE
:103CA00008090BD0B84218BF984205D0A0421CBFEB
:103CB00040454FF0FF3901D14FF0010991F806A0BE
:103CC000D1450EDAD7225C495CA0FCF72DFFD42247
:103CD00059496AA0FCF728FFD522574969A0FCF78B
:103CE00023FFA84214BFB04208230AD0B84218BF2D
:103CF000984205D0A0421CBF40454FF0FF3300D191
:103D00000123CC79A34204DAD8224B4963A0FCF703
:103D10000BFF4FEA0C13B2FBF3F31B041B0C08BFA1
:103D200001235200B2FBFCF45D4204EB4514A7B240
:103D300007EB4314B2FBF4F2944534BFA2EB0C0240
:103D4000ACEB0202654CA4FB0C4C4FEA5C1C0CEB88
:103D50004C0C94453CBF40F2F530BDE8F0874FF085
:103D6000060C5F4C002200BF54F8226086421CBF44
:103D7000521C6245F8D3624504D3A9222E49594802
:103D8000FCF7D2FEDFF860C15CF82220DFF85CC1EE
:103D90000CEB124CDCF80040012505FA02F222433C
:103DA000CCF80020C27822F00C02C270027822F017
:103DB0001F0242EA132202704370827A67F3040200
:103DC000827282780B7922F01302002B1CBF42F022
:103DD00010021A43827002784B7922F020025B01B4
:103DE000C3F3401342EA431202708A79C274CA795B
:103DF0004275027C42F088020274427C42F0C002AA
:103E00004274C2780B7A002B18BF42F00802497A3C
:103E1000002918BF42F00402C2700020BDE8F087FC
:103E200000A0064000B0064000C0064000D006409A
:103E300000A00E4000B00E40F872000046534C5FE8
:103E4000464541545552455F554152545F46494697
:103E50004F5F53495A456E286261736529203E3D84
:103E600020636F6E6669672D3E74784669666F578A
:103E7000617465726D61726B00000000636F6E6645
:103E800069670000636F6E6669672D3E62617564E5
:103E9000526174655F4270730000000046534C5FCE
:103EA000464541545552455F554152545F46494637
:103EB0004F5F53495A456E286261736529203E3D24
:103EC00020636F6E6669672D3E72784669666F572C
:103ED000617465726D61726B000000001F85EB51AB
:103EE000E0680000443C0000F868000000700440F6
:103EF00010B5002934D00B01B2FBF3F31B041B0CEB
:103F000008BF01235200B2FBF1FC5C420CEB441CE5
:103F10001FFA8CFC0CEB4314B2FBF4F28A428CBF08
:103F2000521A8A1A114CA4FB0141490901EB4101C3
:103F300091429CBF40F2F53010BDC178C27822F0AA
:103F40000C02C270027822F01F0242EA13220270B1
:103F50004370827A6CF304028272C170002010BD3B
:103F60004FF4B772024903A0FCF7DEFD1F85EB5149
:103F7000F872000062617564526174655F4270732B
:103F80000000000070B5264C2068002804BF201DEA
:103F90002060251DA84204D05E222249224801F05B
:103FA000DDFA224822680324C168002918BF0424CE
:103FB00022D000BF50F8241031B100EB84014968D1
:103FC000C1B1A41C102CF5DB102C15DBFCF7AAFBEF
:103FD0001821016012480168002904BF011D016019
:103FE000A94204D05E220F490F4801F0B7FA4FF002
:103FF000FF3070BD641CE7E74FF0FF3140F824103C
:104000000748002A04BF011D01600068A84204D0CF
:104010005E220449044801F0A1FA204670BD000068
:1040200080000020E06D0000CC6D000088000020C2
:1040300010B50121084800F097F80021074800F06A
:1040400093F80021064800F08FF8064800F0A7FA20
:10405000054800F0A4FA10BD000000200400002074
:104060000800002070020020900200201028A4BF49
:10407000002070472DE9F0411F4E044656F82400F9
:10408000B0F1FF3F18BFBDE8F081032CA8BFBDE829
:10409000F081204600F024FA50BB204600F025FABB
:1040A00030BB1648007810F0010F20D1134800F003
:1040B000E5FCE0B1124D134841F2110128601248AD
:1040C0004A1E4FF416570068002818BF284607D12B
:1040D0000E4801F0C5FD39460C4801F0A9FD2846FF
:1040E0000B4A0C4900F0B6FC044800F0F5FC04480B
:1040F00046F82400BDE8F081880000207000002010
:10410000740000200C6C0000C80000205C0400203B
:1041100000000000514100006FF01C0070476FF07C
:10412000150070470020704770B515000E464FF01F
:10413000000406D0315D044801F04CFF641CA54228
:10414000F8D8284670BD00005C04002001207047AC
:10415000704770B504460D46002020602946204671
:1041600000F08CFF204670BD70B504460D4600BFC0
:104170002946204600F0C6FF00BF204670BD70B53E
:104180000446006801220021036920469847050083
:1041900048BF70BD2068022200210369204698476D
:1041A0000646206800222946036920469847304683
:1041B00070BD0020704710B50C464C3001F00AFF6E
:1041C000204610BD00EB0110D0F81411002908BFE3
:1041D0007047096800F58470084770B504464C3094
:1041E00001F0E0FD054600F47C51A06C002600289B
:1041F00018BF002905D004F13C02036801261046CF
:104200009847A26B05F0FC01002A18BF002904D0D2
:10421000126804F12C00904702E0002E08BF70BD28
:10422000BDE8704001F02ABF704770472DE9F047A4
:10423000904604463E4A84B03C481E46894620606B
:10424000D2E902130022A160E3603A49216148F2F9
:1042500007016161E261A46104F10801216236494C
:104260006162BFF36F8FBFF34F8F924684F828A02F
:1042700084F829A0C4F82CA0C4F830A0C4F834A055
:10428000C4F838A0C4F83CA0C4F840A0C4F844A0C6
:10429000BC2104F14C00C4F848A0FCF72FFD022318
:1042A0001022264904F5847000F0D6FBA0F5847531
:1042B0000027066205EB071000F584746E46CDF802
:1042C00000A0CDF804A0CDF808A0CDF80CA0B44211
:1042D0000DD0E168204600291CBF89688847314617
:1042E000039810B14268204690470398E060039914
:1042F000684600291CBF896888477F1C022FD9D3D4
:104300004246494605F14C0001F0AAFC05F14C007B
:10431000D5F8281101F08CFC2A46094905F14C001A
:1043200001F034FD04B02846BDE8F087AC6C000015
:10433000D46A000001A090E8FB660000132E000084
:10434000C54100002DE9F043054689B046480027E5
:10435000B9462860CDF81090CDF81490CDF818909B
:10436000CDF81C90286804AE07F0FF0801682846C5
:10437000884700F067FD079805EB08140028D4F87B
:1043800014011CD0002808BF01F044FE04F5847419
:10439000B4420DD0E168204600291CBF89688847D7
:1043A000079818B142683146204690470798E06068
:1043B0000122414605F14C0001F066FD2AE000288B
:1043C00018BF01F05BFE6E4604F58474CDF80090D2
:1043D000CDF80490CDF80890CDF80C90B4420DD0F3
:1043E000E168204600291CBF896888473146039848
:1043F00010B14268204690470398E06003996846F0
:1044000000291CBF896888470022414605F14C00FD
:1044100001F03AFD00F046FD2868416828468847CB
:10442000079804AA10B18168104688477F1C022FA4
:1044300090DB022310220D4905F58470FCF7D8FCAF
:10444000A86C05F13C0410B181682046884754F8F7
:10445000040C103C10B181682046884709B0A4F1D3
:104460002C00BDE8F0830000AC6C0000E9660000A1
:1044700070B5174C05462068002804BF201D206039
:10448000261DB04204D05E221249134801F066F89E
:1044900000212468114B1022084600BF53F821C0A8
:1044A000AC4508BF43F82100491C521EF6D108480C
:1044B000002C04BF011D01600068B04208BF70BD40
:1044C0005E22BDE870400349034801F047B8000090
:1044D00080000020E06D0000CC6D0000880000200E
:1044E000002070470021FCF7EFBA00207047000061
:1044F00070B5054600F0A6FC002400F0A3FC286877
:1045000020B1A86901F023FEA968441A00F0CAFC92
:104510002869241800F0C6FC00EE104A9FED031A2B
:10452000F8EEC00A80EE810A70BD000000247449D4
:1045300070B5044600F086FC0026354600F082FC8B
:10454000206838B1A06901F002FED4E90223861A7E
:1045500061EB030500F0A6FCD4E9040130186941C1
:10456000C4E90401206800281EBF207F002801F054
:1045700085FD00202060BDE8704000F093BC10B5C0
:10458000044600F05FFCA06901F0E1FDC4E902010E
:104590000020C4E90400BDE8104000F083BC10B561
:1045A000044600F04FFC206858B9207F002818BF4F
:1045B00001F030FDA06901F0CAFDC4E9020101204B
:1045C0002060BDE8104000F06DBC10B5044600202E
:1045D0002060C4E90200C4E9040000F0FBFCA06113
:1045E0000120207700F02EFCA06901F0B0FDC4E9A5
:1045F00002010020C4E9040000F054FC204610BD74
:1046000010B5044600F01EFC206800281EBF207F65
:10461000002801F033FD0020206000F043FC20461C
:1046200010BD70477047000010B51C46029BFFF795
:10463000FDFD214600F5967000F066F8A0F5967035
:10464000044901608031C0F830116039C0F82C1184
:1046500010BD0000C46C000010B509490160803134
:10466000C0F830116039C0F82C1100F5967000F0D8
:104670007FF8BDE81040A0F59670FFF763BE00001C
:10468000C46C000070470020704700207047002075
:1046900070472DE9F041054600680F460C468E181C
:1046A000016D28468847B4420AD0286814F8011BD7
:1046B000826C28469047B0F1FF3F18BFB442F4D156
:1046C0002868416D28468847E01BBDE8F08100203E
:1046D00070470FB470B504460068016D20468847E6
:1046E00006AD6069FCF751F92A4660690599FCF747
:1046F0002BF905462068416D20468847284670BC46
:104700005DF814FB7047000038B5104A40F8042BE0
:10471000002200F0C5F8041F0D482060002560301D
:10472000656160600BA1204600F032F80100084688
:10473000616102D0FFF7D6FE06E02A46002306A1FB
:104740000A48009500F064FF204638BD5C6C00000C
:10475000546D0000772B000053747265616D206FFB
:10476000626A206661696C757265000019010180DA
:1047700010B5044605482060603060606069FCF751
:10478000ADF9201D00F0ACF8001F10BD546D000005
:104790002DE9F04383B00E460546FFF7F3FB0027F3
:1047A000DFF88480002806DB204948F820500F54A9
:1047B00001F110010F54044602BF002003B0BDE810
:1047C000F08331464FF040008DF80000CDF80140F5
:1047D0006846FCF752F906004FF009091BD0204645
:1047E000FFF744FC48B10168C9698847041E09DA2B
:1047F000FBF798FF6142016009E0FBF793FFC0F807
:10480000009004E003D030460021FCF75DF903B0CE
:104810003046BDE8F08358F82400A84208BF48F8A5
:104820002470EAD1F3E70000880000202104002072
:10483000007B704770B506460D46154801F03EFFF7
:1048400014480468F4B1A068C8B12A463146FCF7A0
:10485000D8F9A0B9A068FCF7B5F9A8420FD10C4867
:104860000168002904BF011D0160001D814204D0C0
:104870005E220949094800F071FE204670BD646857
:10488000002CE0D1024801F019FF002070BD0000AB
:104890000C01002008010020E06D0000CC6D00003C
:1048A00070B504460B480026A160C4E900060D4619
:1048B0002273094801F002FF002D08BF666003D093
:1048C0000648016861600460034801F0F7FE204675
:1048D00070BD0000C46D00000C0100200801002024
:1048E00010B5044610482060104801F0E7FEA068AB
:1048F00078B10F490868A04204BF6068086008D01A
:104900004168A14203D008464968A142FBD16168D1
:104910004160064801F0D2FE207B002804BF201F22
:10492000FFF7A6FD204610BDC46D00000C0100205D
:104930000801002010B50446406818B1FFF778FF61
:10494000012801D0002010BD6068002818BF001F9A
:1049500010BD10B50446406810B1FFF769FF08B1FB
:10496000002010BD6068002818BF001F10BD4068FF
:10497000002818BF0120704710B54068002808BF04
:1049800010BDFFF755FF00280CBF0120002010BD0F
:104990000068704770B5044600200D4620606060D6
:1049A0000FA12846FCF700F946190025266021686A
:1049B00008782F2804D028B1481C6D1C2060F6E729
:1049C000481C206025B92922064907A000F0C6FD31
:1049D00029463046FFF72EFF6060204670BD00007C
:1049E0002F000000D07500006C656E20213D203046
:1049F0000000000070B504460D46002020602946E6
:104A0000204600F027FB204670BD10B5044600BFCD
:104A1000204600F051FB10BD7047A0F59670FFF7DF
:104A2000CABB704703B401984100009850EAC12006
:104A300018BF04204A0D18BF40F0010040F2FF7279
:104A4000B2EB515F08BF40F00200012808BF05200B
:104A500002B07047012070472DE9F0411C4617460F
:104A60000E00804607D0054602E02846B0473D4488
:104A70002046641EF9D24046BDE8F08110B50446D8
:104A8000007800F00301012904BF002010BD10F0E0
:104A9000030F05D040F2A952044905A000F05EFDC5
:104AA000207840F002002070012010BD0C7400003E
:104AB00030203D3D20282A67756172645F6F626A0D
:104AC0006563742026204358415F47554152445F37
:104AD0004D41534B2900000010B50446007800F00A
:104AE0000300022805D040F2B152054905A000F0AC
:104AF00035FD207820F0030040F00100207010BD4B
:104B00000C7400004358415F47554152445F494E81
:104B100049545F494E5F50524F4752455353203DD1
:104B20003D20282A67756172645F6F626A656374ED
:104B30002026204358415F47554152445F4D415321
:104B40004B2900000020FCF732BF000038B542F2CC
:104B500010011B48FFF7FDFA42F211011948FFF757
:104B6000F8FA41F209011848FFF7F3FA0121174852
:104B7000FFF740FF41F217011548FFF73BFF4FF4E5
:104B80001650002341F21002511C00901148FFF70B
:104B90004BFD0446104A1149FFF75CFF1048FFF730
:104BA00014FD04460C4A0F49FFF754FF0E48FFF767
:104BB0000CFD0446084A0B49FFF74CFF38BD0000C6
:104BC0000000002004000020080000200C0000204D
:104BD00010000020280100200000000059460000BD
:104BE00070020020014600009002002010B500F085
:104BF00009F810BD30380A2801D201207047002082
:104C00007047000002486A4620F007007047000025
:104C1000DF06002010B5064C216806484FF4CC7220
:104C2000FCF73AF80348206000F043FD10BD000097
:104C300008ED00E00000FF1F70B50446FFF716FA0C
:104C40000C4900256E1E41F8245060B10168496985
:104C5000884704005CBF284670BDFBF763FD6142D6
:104C60000160304670BDFBF75DFD092101603046F3
:104C700070BD00008800002010B5FFF7F7F960B1A3
:104C80000168896A8847040058BF10BDFBF74AFDD8
:104C9000614201604FF0FF3010BDFBF743FD092179
:104CA00001604FF0FF3010BD70B5FFF7DFF9002550
:104CB00058B10168C9698847040058BF70BDFBF747
:104CC00031FD61420160284670BDFBF72BFD0921D3
:104CD0000160284670BD000070B50C4605462149AC
:104CE000FCF734F818B320492846FCF72FF818B31E
:104CF0001E492846FCF72AF818B32878402804BF34
:104D0000D5F8010070BD14F0020F18BF02211DD0AC
:104D100014F00C0F18BF41F4007114F0040F18BF09
:104D200041F480612846BDE8704000F0C5BC002019
:104D3000FFF79CF9002070BD0120FFF797F90120D3
:104D400070BD0220FFF792F9022070BD14F0040F2D
:104D500018BF0121DCD114F0080F14BF0921002174
:104D6000D6E70000246900002B69000033690000C9
:104D700070B500240D46FFF779F9661E68B1016829
:104D800022460B6929469847040004D5FBF7CAFC64
:104D9000614201603446204670BDFBF7C3FC092127
:104DA00001603446F7E700002DE9F0410E46074662
:104DB000B2F1004F07D3FBF7B5FC162101604FF0AD
:104DC000FF30BDE8F081141E4FF000051BDDFFF73A
:104DD0004DF970B101682246CB6831469847051EEF
:104DE0000BDAFBF79FFC694201604FF0FF30BDE832
:104DF000F081FBF797FC0921F6E704DD7019034900
:104E000010F8010CC855601BBDE8F081310400208A
:104E1000EFF31080012121EA00007047D0E85F2FF6
:104E2000521A92B2C0E8532F002BF7D110467047A8
:104E3000D0E85F2F0A4492B2C0E8532F002BF7D17D
:104E40001046704710B5084C2068B0F1FF3F04D100
:104E50005522064906A000F081FB00F07FF920688A
:104E6000401C206010BD0000DC00002028760000FF
:104E7000637269746963616C5F73656374696F6E93
:104E80005F7265656E7472616E63795F636F756E74
:104E9000746572203C2055494E5433325F4D415861
:104EA0000000000006480168002908BF704701683B
:104EB000491E01600068002818BF704700F05EB905
:104EC000DC000020EFF30580002818BF01207047A8
:104ED00010B5134C844600202168012202FA00F329
:104EE0000B420ED1824011432160BCF5807F08BF88
:104EF00010BD0C4910280AD382220B490BA0FBF7E6
:104F000013FE401C1028E9DB4FF0FF3010BD0A5C97
:104F10006CF305020A540A5C42F080020A5410BD88
:104F20001400002000100240446E00006368616EAF
:104F30006E656C203C2046534C5F464541545552AB
:104F4000455F444D414D55585F4D4F44554C455F6D
:104F50004348414E4E454C00012101FA00F20A49F6
:104F600010B50B68102823EA02020A60074904D32F
:104F7000742207490748FBF7D7FD0A5C22F080023C
:104F80000A54002010BD0000140000200010024050
:104F9000446E00002C4F000004460548FBF7F5FC6A
:104FA0000448FBF7F2FC002C18BF00F001FBFEE701
:104FB000180600206C0600208A68002A01DCFCF735
:104FC0004BBA521E8A604A68C0B2531C4B601070C4
:104FD0007047000000487047006B000070B5044641
:104FE00000680D46B0F1FF3F04D131220C490DA0FD
:104FF00000F0B4FA21680813CAB2104951F8200031
:1050000001213DB1012D18BF70BD43699140194385
:10501000416170BD4369914023EA0101F8E7000056
:105020008C7300006F626A2D3E70696E20213D20F6
:105030002850696E4E616D65294E4300106900006D
:105040000A460160B1F1FF3F08BF704701211046D9
:1050500000F08EBB70B5022605460C46FFF7F0FF48
:10506000B4F1FF3F08BF70BD00212846FFF7B6FF2F
:1050700031462846BDE8704000F01BB82DE9F041EC
:10508000002605460C463746FFF7DAFFB4F1FF3F2E
:1050900008BFBDE8F0813146284600F033F8012111
:1050A0002846FFF79BFF39462846BDE8F041AFF39D
:1050B0000080006800F09ABB10B504460068B0F1AB
:1050C000FF3F04D14B22074907A000F047FA2068B0
:1050D0000B4A011352F82110096921FA00F000F07F
:1050E000010010BD8C7300006F626A2D3E70696E06
:1050F00020213D202850696E4E616D65294E430088
:105100001069000070B5044600680D46B0F1FF3F1D
:1051100004D1422209490AA000F020FA20680E4A70
:105120000113C0B252F821204FF0010315F0FF0F18
:1051300003FA00F00CBF9060506070BD8C730000EB
:105140006F626A2D3E70696E20213D202850696E85
:105150004E616D65294E430010690000EFF3108029
:10516000012222EA000172B603484378002B04BFF3
:105170000170427070470000EC00002010B5EFF3A2
:105180001080012131EA000004D03622064907A030
:1051900000F0E4F90C48002141700078002808BFB5
:1051A00010BD62B610BD0000287700002161726555
:1051B0005F696E74657272757074735F656E61623B
:1051C0006C65642829000000EC000020F0B585B073
:1051D0000F460A9E040058BF174C184D2878012826
:1051E000FDD0FFF72FFE154D01202870FFF75AFE66
:1051F0006868411C696012483D46012908D1E0E811
:105200000246A0E8A00F9DE80E5080E80E5020381E
:10521000C0E90D463C30A0E8A00F9DE81E1080E8D4
:105220001E10064CA16800291CBF064888470020B4
:10523000207005B0F0BD00000101FF80E0000020FB
:10524000580500208C0500202DE9F84F04464068E1
:1052500090F83800002818BFBDE8F88F2068006873
:105260008047206880698047DFF8D480056806465B
:105270002DB92922334934A000F070F945460027A2
:105280001F204FF0010900BF09FA00F1A94201D126
:10529000074603E0401E10F0FF00F5D17668301F8E
:1052A0001D2805D33722274927A000F057F92026CB
:1052B000301F0721424601FA00FA4FF00008681E2D
:1052C00048F1FF31EAFB02012A464346FBF784FA24
:1052D000834600916068C0F800806068C0F8048070
:1052E0002068406880476168086262680020002189
:1052F000C2E90A00606832468560606880F83A70EA
:105300000120FBF7E0FA6168401EC8606068C0F8E1
:1053100010A0626800994046C2E906B16268C2E91D
:105320000C00606880F83980606880F8389020460A
:1053300001F018F82046BDE8F84F00F0F7BB000078
:1053400040420F0078750000300000002DED028B08
:10535000FEF76EFE4AA15348FFF7BBF90024002573
:105360008CE04BE05048FFF750FB08B304BB9FEDC7
:105370004F0A01F04DF94C48FFF747FBC0B1BCB9EB
:105380004B48FFF7D5F84A48FFF7B2F810EE106A1D
:10539000304601F0D3F941EC180B53EC182B45A122
:1053A0004048FFF796F900214D48FEF7DDFE012445
:1053B0004C48FFF72AFB08B305BB9FED3C0A01F000
:1053C00027F94848FFF721FBC0B1BDB94648FFF7B0
:1053D000AFF84548FFF78CF810EE106A304601F040
:1053E000ADF941EC180B53EC182B40A12D48FFF7F9
:1053F00070F900213A48FEF7B7FE0125002CB1D024
:10540000002DAFD03848FFF773F8B0EE408A284837
:10541000FFF76EF8B4EEC08AF1EE10FA07DD012155
:105420003D48FEF7A1FE3DA11E48FFF752F92E4868
:10543000FFF75EF8B0EE408A1D48FFF759F8B4EE6A
:10544000C08AF1EE10FA07D201213948FEF78CFE2E
:1054500038A11448FFF73DF9002400251448FFF750
:105460008EF82148FFF78BF8B0EE080A01F0D0F86B
:10547000FEF7DEFD34A10B48FFF72BF971E70000C2
:1054800077656C636F6D6520746F2074686520723A
:10549000656163742074696D652067616D65210DB8
:1054A0000A000000540200200C0000200AD7233C10
:1054B00070020020506C6179657220312773207270
:1054C00065616374696F6E2074696D65206973200E
:1054D0002566207365636F6E64730D0A000000001B
:1054E000000000201000002090020020506C617924
:1054F000657220322773207265616374696F6E2054
:1055000074696D65206973202566207365636F6E0D
:1055100064730D0A0000000004000020706C6179C3
:10552000657220312077696E73210D0A000000003A
:1055300008000020706C6179657220322077696EF6
:1055400073210D0A0000000072657374617274208B
:105550007468652067616D65210D0A0070B5144699
:105560000D460646FFF76EFC23462A46314603A049
:1055700000F072F8BDE8704000F01AB86D62656422
:10558000206173736572746174696F6E20666169FE
:105590006C65643A2025732C2066696C653A202579
:1055A000732C206C696E65202564200A00000000C1
:1055B00082B0FFF747FC41F216016846FFF75EFD37
:1055C000002401216846FFF79DFD962001F038F880
:1055D00000216846FFF796FD962001F031F8641C23
:1055E000042CEEDB002401216846FFF78BFD4FF40D
:1055F000C87001F025F800216846FFF783FD4FF4DD
:10560000C87001F01DF8641C042CECDBD8E7000026
:1056100038B514469C46039A0D460092049B624698
:105620002146FFF7D3FD00281CBF094838BD294695
:10563000084800F0B9F9FFF745FC30B9FFE7FFF77C
:10564000E7FB10B10120FFF7A7FC30BFFDE700002A
:105650000F01FF808C0500200FB470B5A0B025AC01
:10566000249DFFF7EFFB23462A4680216846FBF77F
:1056700051F9051E11DD0C48006828B941F21002ED
:10568000511C0A4800F0ECFA00246E460748315DD0
:1056900000F0A0FC641CAC42F8DBFFF703FC20B078
:1056A00070BC5DF814FB0000C80000205C04002002
:1056B0007047FDF7B5BB00002DE9F04385B0894682
:1056C0000646FEF75FFC040044BF05B0BDE8F0836A
:1056D0000025314602A80195FFF75CF902A8FFF703
:1056E00046F9214E6F1E4FF01308002832D002A851
:1056F000FFF742F9002802A80CD0FFF72AF9019021
:1057000046F82400194805551030055505B02046C7
:10571000BDE8F083FFF70EF9E0B1804602A8FFF77D
:1057200037F90246D8F800004B4601A9D0F808C066
:105730004046E047002808BF0198E1D08046FAF7CC
:10574000F1FFC8F10001016046F8245005B0384669
:10575000BDE8F083FAF7E6FFC0F8008046F8245071
:1057600005B03846BDE8F083880000202104002001
:1057700030B585B00C460546B0F1FF3F04D11A2282
:10578000114912A0FFF7EAFEDFF854C09CE80F10A1
:105790008DE80F102A1313485DF8221000EB11401A
:1057A00003684FF0010C0CFA01F1194301600E4837
:1057B000E9B250F8220050F8212064F30A2240F8A0
:1057C000212005B030BD00006874000070696E20B3
:1057D000213D202850696E4E616D65294E430000C1
:1057E000806A0000007004406C6A000070B50D46CD
:1057F0000446B0F1FF3F04D12422124912A0FFF762
:10580000ADFE16492013E3B251F8202052F82300D0
:10581000002D04BF20F0030020F080700ED0012D79
:1058200002BF20F0010020F0807040F0020005D09F
:10583000022D04BF20F0807040F0030042F82300E6
:1058400070BD00006874000070696E20213D202842
:1058500050696E4E616D65294E4300006C6A000010
:10586000884208BF7047B0F1FF3F04BF0846704749
:1058700008B5B1F1FF3F08BF08BD00210B46024645
:10588000009103A10748FFF7C3FE4FF0FF3008BDAA
:1058900070696E6D6170206D69732D6D61746368E0
:1058A000000000003001018038B5B0F1FF3F08BFB3
:1058B00038BD0A68B2F1FF3F0CD00A68824204D1B9
:1058C0004C68B4F1FF3F0FD106E051F80C2FB2F154
:1058D000FF3FF2D14FF0FF340020034600902246F4
:1058E00002A10A48FFF794FE204638BD70696E6D2C
:1058F0006170206E6F7420666F756E6420666F72C3
:10590000207065726970686572616C003001018099
:1059100038B50446B0F1FF3F08BF38BD0868B0F1A4
:10592000FF3F11D00868A04209D189682046FFF7DF
:105930001FFF2046BDE838400021FFF757BF51F850
:105940000C0FB0F1FF3FEDD100200346009022463E
:1059500002A10748FFF75CFE38BD0000636F756C5D
:1059600064206E6F742070696E6F757400000000A3
:10597000300101800A480121C0F80C110A4609498A
:10598000C1F80C21D1F8082122F00102C1F8082148
:10599000D0F8081121F00101C0F8081100F0EEBDA7
:1059A000307003402070034070B50E460168044615
:1059B000C1F3417082B003280CBF4D428DB2C1F3D8
:1059C00007432A462048FFF747FEA5F23110082872
:1059D0000CD2DFE800F0040726292C322F351BA05B
:1059E000A16801E01FA0A168FFF736FE3046FFF76F
:1059F00033FE20A06168FFF72FFE22A0A168FFF709
:105A00002BFED4E90601CDE90001D4E903122248B6
:105A10006369FFF721FE02B020A0BDE87040FFF7E8
:105A20001BBE25A0A168DFE727A0A168DCE72BA0AB
:105A3000A168D9E72EA0A168D6E732A0A168D3E774
:105A400034A0A168D0E70000847600004B65726E38
:105A5000656C204572726F723A20307825582C2080
:105A6000000000005468726561643A20307825585F
:105A70002C2000000A4C6F636174696F6E3A20300D
:105A8000782558000A4572726F722056616C7565F0
:105A90003A20307825580000D87600000A2D2D20B5
:105AA0004D6265644F53204572726F7220496E6675
:105AB0006F202D2D0A0000004D757465783A203056
:105AC0007825582C2000000053656D6170686F7256
:105AD000653A20307825582C200000004D656D6F08
:105AE0007279506F6F6C3A20307825582C20000066
:105AF0004576656E74466C6167733A203078255838
:105B00002C20000054696D65723A20307825582C9D
:105B1000200000004D65737361676551756575659B
:105B20003A20307825582C20000000002DE9F0475D
:105B30004668054696F83900002818BFBDE8F0878A
:105B4000284600F00FFC6C686068002861D0D4E93A
:105B50000C32D0E90010B3EB010C72EB000C53D205
:105B6000CB1A60EB0201D4E906C820690022BCEB25
:105B7000030C074678EB010C25D3DFF8B080D4F88E
:105B800008C0C44503D1184687421CD24BE094F8A4
:105B90003A90B9F1000F0AD018464A46FAF793FE38
:105BA00042460023FAF718FE87420CD23BE0ACFBDA
:105BB000030902FB03920CFB012142460023FAF782
:105BC0000BFE87422FD3216A0844E16800EA0104F2
:105BD000306AA04218D028680169204688472868A2
:105BE00040688047316A8C4206D984420CD9814290
:105BF00098BFBDE8F08707E0884228BFBDE8F0877E
:105C0000A04238BFBDE8F08728684069BDE8F0478A
:105C100000473169306A0844F16808402968096919
:105C2000BDE8F04708473846CDE7000040420F0086
:105C300070B50D46044600680749085CFDF71CFA7C
:105C4000064B2168024653F821302946BDE87040D2
:105C50001846FEF74DB90000946A00009C6A0000E7
:105C60002DE9F0418846044684B01746384940463D
:105C7000FFF71AFE054637493846FFF715FE01467D
:105C80002846FFF7EDFD2060B0F1FF3F04D1372239
:105C9000314932A0FFF762FC6846FDF78FFF00250F
:105CA0004FF416508DF8085000908DF80950334984
:105CB0002068085CFDF7E0F9314E2168024656F88D
:105CC000213069461846FDF7D7FF21494046FFF7C6
:105CD0001FFE20493846FFF71BFEB8F1FF3F0AD0F0
:105CE000206856F82000C17841F00801C1700221F7
